{
  "address": "0xFCAA0e4E72B75f37FD66bD484f640F68f5662801",
  "abi": [
    {
      "inputs": [
        {
          "internalType": "contract IERC20",
          "name": "usdc_",
          "type": "address"
        },
        {
          "internalType": "contract EZIOV1",
          "name": "ezio_",
          "type": "address"
        },
        {
          "internalType": "contract xEZIOV1",
          "name": "xezio_",
          "type": "address"
        },
        {
          "internalType": "address",
          "name": "wallet_",
          "type": "address"
        },
        {
          "internalType": "uint256",
          "name": "openingTime_",
          "type": "uint256"
        },
        {
          "internalType": "uint256",
          "name": "closingTime_",
          "type": "uint256"
        }
      ],
      "stateMutability": "nonpayable",
      "type": "constructor"
    },
    {
      "anonymous": false,
      "inputs": [
        {
          "indexed": true,
          "internalType": "address",
          "name": "account_",
          "type": "address"
        },
        {
          "indexed": true,
          "internalType": "uint256",
          "name": "amount_",
          "type": "uint256"
        }
      ],
      "name": "Buy",
      "type": "event"
    },
    {
      "anonymous": false,
      "inputs": [
        {
          "indexed": true,
          "internalType": "address",
          "name": "previousOwner",
          "type": "address"
        },
        {
          "indexed": true,
          "internalType": "address",
          "name": "newOwner",
          "type": "address"
        }
      ],
      "name": "OwnershipTransferred",
      "type": "event"
    },
    {
      "anonymous": false,
      "inputs": [
        {
          "indexed": false,
          "internalType": "address",
          "name": "account",
          "type": "address"
        }
      ],
      "name": "Paused",
      "type": "event"
    },
    {
      "anonymous": false,
      "inputs": [
        {
          "indexed": false,
          "internalType": "address",
          "name": "account",
          "type": "address"
        }
      ],
      "name": "Unpaused",
      "type": "event"
    },
    {
      "anonymous": false,
      "inputs": [
        {
          "indexed": true,
          "internalType": "address",
          "name": "account_",
          "type": "address"
        },
        {
          "indexed": true,
          "internalType": "uint256",
          "name": "amount_",
          "type": "uint256"
        }
      ],
      "name": "Withdraw",
      "type": "event"
    },
    {
      "inputs": [],
      "name": "EZIO_RATE",
      "outputs": [
        {
          "internalType": "uint8",
          "name": "",
          "type": "uint8"
        }
      ],
      "stateMutability": "view",
      "type": "function"
    },
    {
      "inputs": [],
      "name": "PUBLIC_SALE_AMOUNT",
      "outputs": [
        {
          "internalType": "uint256",
          "name": "",
          "type": "uint256"
        }
      ],
      "stateMutability": "view",
      "type": "function"
    },
    {
      "inputs": [],
      "name": "RAISE_USDC_CAP",
      "outputs": [
        {
          "internalType": "uint256",
          "name": "",
          "type": "uint256"
        }
      ],
      "stateMutability": "view",
      "type": "function"
    },
    {
      "inputs": [],
      "name": "RAISE_USDC_THRESHOLD",
      "outputs": [
        {
          "internalType": "uint256",
          "name": "",
          "type": "uint256"
        }
      ],
      "stateMutability": "view",
      "type": "function"
    },
    {
      "inputs": [],
      "name": "XEZIO_RATE",
      "outputs": [
        {
          "internalType": "uint8",
          "name": "",
          "type": "uint8"
        }
      ],
      "stateMutability": "view",
      "type": "function"
    },
    {
      "inputs": [],
      "name": "afterPublicSaleExecute",
      "outputs": [],
      "stateMutability": "nonpayable",
      "type": "function"
    },
    {
      "inputs": [
        {
          "internalType": "address",
          "name": "account",
          "type": "address"
        }
      ],
      "name": "balanceOf",
      "outputs": [
        {
          "internalType": "uint256",
          "name": "",
          "type": "uint256"
        }
      ],
      "stateMutability": "view",
      "type": "function"
    },
    {
      "inputs": [
        {
          "internalType": "uint256",
          "name": "usdcAmount",
          "type": "uint256"
        }
      ],
      "name": "buy",
      "outputs": [],
      "stateMutability": "nonpayable",
      "type": "function"
    },
    {
      "inputs": [],
      "name": "closingTime",
      "outputs": [
        {
          "internalType": "uint256",
          "name": "",
          "type": "uint256"
        }
      ],
      "stateMutability": "view",
      "type": "function"
    },
    {
      "inputs": [],
      "name": "executeFlag",
      "outputs": [
        {
          "internalType": "bool",
          "name": "",
          "type": "bool"
        }
      ],
      "stateMutability": "view",
      "type": "function"
    },
    {
      "inputs": [],
      "name": "hasClosed",
      "outputs": [
        {
          "internalType": "bool",
          "name": "",
          "type": "bool"
        }
      ],
      "stateMutability": "view",
      "type": "function"
    },
    {
      "inputs": [],
      "name": "isOpen",
      "outputs": [
        {
          "internalType": "bool",
          "name": "",
          "type": "bool"
        }
      ],
      "stateMutability": "view",
      "type": "function"
    },
    {
      "inputs": [],
      "name": "openingTime",
      "outputs": [
        {
          "internalType": "uint256",
          "name": "",
          "type": "uint256"
        }
      ],
      "stateMutability": "view",
      "type": "function"
    },
    {
      "inputs": [],
      "name": "owner",
      "outputs": [
        {
          "internalType": "address",
          "name": "",
          "type": "address"
        }
      ],
      "stateMutability": "view",
      "type": "function"
    },
    {
      "inputs": [],
      "name": "pause",
      "outputs": [],
      "stateMutability": "nonpayable",
      "type": "function"
    },
    {
      "inputs": [],
      "name": "paused",
      "outputs": [
        {
          "internalType": "bool",
          "name": "",
          "type": "bool"
        }
      ],
      "stateMutability": "view",
      "type": "function"
    },
    {
      "inputs": [],
      "name": "renounceOwnership",
      "outputs": [],
      "stateMutability": "nonpayable",
      "type": "function"
    },
    {
      "inputs": [
        {
          "internalType": "address",
          "name": "newOwner",
          "type": "address"
        }
      ],
      "name": "transferOwnership",
      "outputs": [],
      "stateMutability": "nonpayable",
      "type": "function"
    },
    {
      "inputs": [],
      "name": "unpause",
      "outputs": [],
      "stateMutability": "nonpayable",
      "type": "function"
    },
    {
      "inputs": [],
      "name": "wallet",
      "outputs": [
        {
          "internalType": "address",
          "name": "",
          "type": "address"
        }
      ],
      "stateMutability": "view",
      "type": "function"
    },
    {
      "inputs": [],
      "name": "withdraw",
      "outputs": [],
      "stateMutability": "nonpayable",
      "type": "function"
    }
  ],
  "transactionHash": "0x42c67815355d076fc53afa6ca512a982c0f971b8c763f227b3a36a7958399d23",
  "args": [
    "0xff970a61a04b1ca14834a43f5de4533ebddb5cc8",
    "0xfCF0c7c5d7DFD8Cd54F76A86Bb02278895a5f16E",
    "0xCf8Cf1342791956A3f87F29A350aB87Fd569F942",
    "0x49f2Da4e498b1473FFA8308C66267Ff87Fc7722B",
    "1682033859",
    "1682035029"
  ],
  "numDeployments": 1,
  "solcInputHash": "9f4bd39c0dc20de0adc14f2cad4105a8",
  "bytecode": "0x60806040523480156200001157600080fd5b506040516200194f3803806200194f833981016040819052620000349162000326565b60016000556200004433620002bb565b6001805460ff60a01b191690556001600160a01b038616620000be5760405162461bcd60e51b815260206004820152602860248201527f457a696f5075626c696353616c653a205553444320697320746865207a65726f604482015267206164647265737360c01b60648201526084015b60405180910390fd5b6001600160a01b038516620001275760405162461bcd60e51b815260206004820152602860248201527f457a696f5075626c696353616c653a20455a494f20697320746865207a65726f604482015267206164647265737360c01b6064820152608401620000b5565b6001600160a01b038416620001915760405162461bcd60e51b815260206004820152602960248201527f457a696f5075626c696353616c653a2078455a494f20697320746865207a65726044820152686f206164647265737360b81b6064820152608401620000b5565b42821015620001f85760405162461bcd60e51b815260206004820152603360248201526000805160206200192f83398151915260448201527f6265666f72652063757272656e742074696d65000000000000000000000000006064820152608401620000b5565b8181116200025e5760405162461bcd60e51b815260206004820152603760248201526000805160206200192f83398151915260448201527f6e6f74206265666f726520636c6f73696e672074696d650000000000000000006064820152608401620000b5565b600280546001600160a01b039788166001600160a01b0319918216179091556003805496881696821696909617909555600480549487169486169490941790935560058054929095169190931617909255600855600955620003a2565b600180546001600160a01b038381166001600160a01b0319831681179093556040519116919082907f8be0079c531659141344cd1fd0a4f28419497f9722a3daafe3b4186f6b6457e090600090a35050565b6001600160a01b03811681146200032357600080fd5b50565b60008060008060008060c087890312156200034057600080fd5b86516200034d816200030d565b602088015190965062000360816200030d565b604088015190955062000373816200030d565b606088015190945062000386816200030d565b809350506080870151915060a087015190509295509295509295565b61157d80620003b26000396000f3fe608060405234801561001057600080fd5b50600436106101375760003560e01c806360e52b2e116100b85780638da5cb5b1161007c5780638da5cb5b14610247578063b54e0a4414610258578063b7a8807c14610265578063d7adc7141461026e578063d96a094a1461027a578063f2fde38b1461028d57600080fd5b806360e52b2e146101f957806370a0823114610206578063715018a61461022f57806382cd3578146102375780638456cb591461023f57600080fd5b80633f4ba83a116100ff5780633f4ba83a146101a357806347535d7b146101ab5780634b6753bc146101b3578063521eb273146101bc5780635c975abb146101e757600080fd5b80631515bc2b1461013c578063260c1424146101575780633250acb41461016157806338b902e8146101815780633ccfd60b1461019b575b600080fd5b60095442115b60405190151581526020015b60405180910390f35b61015f6102a0565b005b6101736a52b7d2dcc80cd2e400000081565b60405190815260200161014e565b610189602381565b60405160ff909116815260200161014e565b61015f610748565b61015f610b8a565b610142610bac565b61017360095481565b6005546101cf906001600160a01b031681565b6040516001600160a01b03909116815260200161014e565b600154600160a01b900460ff16610142565b6101736501d1a94a200081565b6101736102143660046113c2565b6001600160a01b031660009081526007602052604090205490565b61015f610bc7565b610189604181565b61015f610bd9565b6001546001600160a01b03166101cf565b600a546101429060ff1681565b61017360085481565b61017364e8d4a5100081565b61015f6102883660046113f2565b610bf1565b61015f61029b3660046113c2565b610e0c565b6102a8610e82565b600954421160405180604001604052806019815260200178457a696f5075626c696353616c653a206e6f7420636c6f736560381b815250906103065760405162461bcd60e51b81526004016102fd9190611437565b60405180910390fd5b50600a5460ff161561035a5760405162461bcd60e51b815260206004820181905260248201527f457a696f5075626c696353616c653a20457865637574656420616c726561647960448201526064016102fd565b600a805460ff1916600117905560065460009064e8d4a51000106106e357600061038a64e8d4a510006064611480565b6006546041906a52b7d2dcc80cd2e4000000906103ac9064e8d4a5100061149f565b6103b69190611480565b6103c09190611480565b6103ca91906114b6565b905060006103de64e8d4a510006064611480565b6006546023906a52b7d2dcc80cd2e4000000906104009064e8d4a5100061149f565b61040a9190611480565b6104149190611480565b61041e91906114b6565b905061042b60018361149f565b6003546040516370a0823160e01b81523060048201526001600160a01b03909116906370a082319060240160206040518083038186803b15801561046e57600080fd5b505afa158015610482573d6000803e3d6000fd5b505050506040513d601f19601f820116820180604052508101906104a691906114d8565b141561051d576003546001600160a01b03166342966c686104c860018561149f565b6040518263ffffffff1660e01b81526004016104e691815260200190565b600060405180830381600087803b15801561050057600080fd5b505af1158015610514573d6000803e3d6000fd5b5050505061057c565b600354604051630852cd8d60e31b8152600481018490526001600160a01b03909116906342966c6890602401600060405180830381600087803b15801561056357600080fd5b505af1158015610577573d6000803e3d6000fd5b505050505b61058760018261149f565b600480546040516370a0823160e01b815230928101929092526001600160a01b0316906370a082319060240160206040518083038186803b1580156105cb57600080fd5b505afa1580156105df573d6000803e3d6000fd5b505050506040513d601f19601f8201168201806040525081019061060391906114d8565b141561067a576004546001600160a01b03166342966c6861062560018461149f565b6040518263ffffffff1660e01b815260040161064391815260200190565b600060405180830381600087803b15801561065d57600080fd5b505af1158015610671573d6000803e3d6000fd5b505050506106d7565b60048054604051630852cd8d60e31b81529182018390526001600160a01b0316906342966c6890602401600060405180830381600087803b1580156106be57600080fd5b505af11580156106d2573d6000803e3d6000fd5b505050505b60065492505050610728565b64e8d4a5100060065411801561070157506501d1a94a200060065411155b1561070f5750600654610728565b6501d1a94a2000600654111561072857506501d1a94a20005b600554600254610745916001600160a01b03918216911683610edc565b50565b610750610f44565b600954421160405180604001604052806019815260200178457a696f5075626c696353616c653a206e6f7420636c6f736560381b815250906107a55760405162461bcd60e51b81526004016102fd9190611437565b506107ae610f9e565b3360009081526007602052604090206001015460ff16156108115760405162461bcd60e51b815260206004820152601d60248201527f457a696f5075626c696353616c653a206861732077697468647261776e00000060448201526064016102fd565b60008064e8d4a51000600654116108c55761083264e8d4a510006064611480565b3360009081526007602052604090205460419061085b906a52b7d2dcc80cd2e400000090611480565b6108659190611480565b61086f91906114b6565b915061088164e8d4a510006064611480565b336000908152600760205260409020546023906108aa906a52b7d2dcc80cd2e400000090611480565b6108b49190611480565b6108be91906114b6565b9050610b07565b64e8d4a510006006541180156108e357506501d1a94a200060065411155b15610944576006546108f6906064611480565b3360009081526007602052604090205460419061091f906a52b7d2dcc80cd2e400000090611480565b6109299190611480565b61093391906114b6565b915060065460646108819190611480565b6501d1a94a20006006541115610b0757600654610962906064611480565b3360009081526007602052604090205460419061098b906a52b7d2dcc80cd2e400000090611480565b6109959190611480565b61099f91906114b6565b915060065460646109b09190611480565b336000908152600760205260409020546023906109d9906a52b7d2dcc80cd2e400000090611480565b6109e39190611480565b6109ed91906114b6565b6006543360009081526007602052604081205492935091610a15906501d1a94a200090611480565b610a1f91906114b6565b33600090815260076020526040902054610a39919061149f565b9050610a4660018261149f565b6002546040516370a0823160e01b81523060048201526001600160a01b03909116906370a082319060240160206040518083038186803b158015610a8957600080fd5b505afa158015610a9d573d6000803e3d6000fd5b505050506040513d601f19601f82011682018060405250810190610ac191906114d8565b1415610aee57610ae933610ad660018461149f565b6002546001600160a01b03169190610edc565b610b05565b600254610b05906001600160a01b03163383610edc565b505b336000818152600760205260408082206001908101805460ff19169091179055518492917f884edad9ce6fa2440d8a54cc123490eb96d2768479d49ff9c7366125a942436491a3600354610b65906001600160a01b03163384610edc565b600454610b7c906001600160a01b03163383610edc565b5050610b886001600055565b565b610b92610e82565b610b9a610f44565b610ba2610feb565b610b886001600055565b60006008544210158015610bc257506009544211155b905090565b610bcf610e82565b610b886000611040565b610be1610e82565b610be9610f44565b610ba2611092565b610bf9610f44565b610c01610bac565b6040518060400160405280601881526020017f457a696f5075626c696353616c653a206e6f74206f70656e000000000000000081525090610c555760405162461bcd60e51b81526004016102fd9190611437565b50610c5e610f9e565b80610cab5760405162461bcd60e51b815260206004820152601f60248201527f457a696f5075626c696353616c653a2075736463416d6f756e7420697320300060448201526064016102fd565b600254610cc3906001600160a01b03163330846110d5565b3360009081526007602052604081208054839290610ce29084906114f1565b925050819055508060066000828254610cfb91906114f1565b90915550506006546002546040516370a0823160e01b81523060048201526001600160a01b03909116906370a082319060240160206040518083038186803b158015610d4657600080fd5b505afa158015610d5a573d6000803e3d6000fd5b505050506040513d601f19601f82011682018060405250810190610d7e91906114d8565b10156040518060400160405280601c81526020017f457a696f5075626c696353616c653a2057726f6e6720416d6f756e740000000081525090610dd45760405162461bcd60e51b81526004016102fd9190611437565b50604051819033907fe3d4187f6ca4248660cc0ac8b8056515bac4a8132be2eca31d6d0cc170722a7e90600090a36107456001600055565b610e14610e82565b6001600160a01b038116610e795760405162461bcd60e51b815260206004820152602660248201527f4f776e61626c653a206e6577206f776e657220697320746865207a65726f206160448201526564647265737360d01b60648201526084016102fd565b61074581611040565b6001546001600160a01b03163314610b885760405162461bcd60e51b815260206004820181905260248201527f4f776e61626c653a2063616c6c6572206973206e6f7420746865206f776e657260448201526064016102fd565b6040516001600160a01b038316602482015260448101829052610f3f90849063a9059cbb60e01b906064015b60408051601f198184030181529190526020810180516001600160e01b03166001600160e01b031990931692909217909152611113565b505050565b60026000541415610f975760405162461bcd60e51b815260206004820152601f60248201527f5265656e7472616e637947756172643a207265656e7472616e742063616c6c0060448201526064016102fd565b6002600055565b600154600160a01b900460ff1615610b885760405162461bcd60e51b815260206004820152601060248201526f14185d5cd8589b194e881c185d5cd95960821b60448201526064016102fd565b610ff36111e5565b6001805460ff60a01b191690557f5db9ee0a495bf2e6ff9c91a7834c1ba4fdd244a5e8aa4e537bd38aeae4b073aa335b6040516001600160a01b03909116815260200160405180910390a1565b600180546001600160a01b038381166001600160a01b0319831681179093556040519116919082907f8be0079c531659141344cd1fd0a4f28419497f9722a3daafe3b4186f6b6457e090600090a35050565b61109a610f9e565b6001805460ff60a01b1916600160a01b1790557f62e78cea01bee320cd4e420270b5ea74000d11b0c9f74754ebdbfc544b05a2586110233390565b6040516001600160a01b038085166024830152831660448201526064810182905261110d9085906323b872dd60e01b90608401610f08565b50505050565b6000611168826040518060400160405280602081526020017f5361666545524332303a206c6f772d6c6576656c2063616c6c206661696c6564815250856001600160a01b03166112359092919063ffffffff16565b805190915015610f3f57808060200190518101906111869190611509565b610f3f5760405162461bcd60e51b815260206004820152602a60248201527f5361666545524332303a204552433230206f7065726174696f6e20646964206e6044820152691bdd081cdd58d8d9595960b21b60648201526084016102fd565b600154600160a01b900460ff16610b885760405162461bcd60e51b815260206004820152601460248201527314185d5cd8589b194e881b9bdd081c185d5cd95960621b60448201526064016102fd565b6060611244848460008561124c565b949350505050565b6060824710156112ad5760405162461bcd60e51b815260206004820152602660248201527f416464726573733a20696e73756666696369656e742062616c616e636520666f6044820152651c8818d85b1b60d21b60648201526084016102fd565b600080866001600160a01b031685876040516112c9919061152b565b60006040518083038185875af1925050503d8060008114611306576040519150601f19603f3d011682016040523d82523d6000602084013e61130b565b606091505b509150915061131c87838387611327565b979650505050505050565b6060831561139357825161138c576001600160a01b0385163b61138c5760405162461bcd60e51b815260206004820152601d60248201527f416464726573733a2063616c6c20746f206e6f6e2d636f6e747261637400000060448201526064016102fd565b5081611244565b61124483838151156113a85781518083602001fd5b8060405162461bcd60e51b81526004016102fd9190611437565b6000602082840312156113d457600080fd5b81356001600160a01b03811681146113eb57600080fd5b9392505050565b60006020828403121561140457600080fd5b5035919050565b60005b8381101561142657818101518382015260200161140e565b8381111561110d5750506000910152565b602081526000825180602084015261145681604085016020870161140b565b601f01601f19169190910160400192915050565b634e487b7160e01b600052601160045260246000fd5b600081600019048311821515161561149a5761149a61146a565b500290565b6000828210156114b1576114b161146a565b500390565b6000826114d357634e487b7160e01b600052601260045260246000fd5b500490565b6000602082840312156114ea57600080fd5b5051919050565b600082198211156115045761150461146a565b500190565b60006020828403121561151b57600080fd5b815180151581146113eb57600080fd5b6000825161153d81846020870161140b565b919091019291505056fea2646970667358221220af90b8ae87237b08bde5c09093ae746df571a060b928dd2f64b79697a26e7f5864736f6c63430008080033457a696f5075626c696353616c653a206f70656e696e672074696d6520697320",
  "devdoc": {
    "kind": "dev",
    "methods": {
      "balanceOf(address)": {
        "params": {
          "account": "address of contributor"
        },
        "returns": {
          "_0": "uint256"
        }
      },
      "buy(uint256)": {
        "params": {
          "usdcAmount": "USDC amount for buy EZIO and xEZIO"
        }
      },
      "hasClosed()": {
        "details": "Checks whether the period in which the public sale is open has already elapsed.",
        "returns": {
          "_0": "Whether public sale period has elapsed"
        }
      },
      "isOpen()": {
        "returns": {
          "_0": "true if the public sale is open, false otherwise."
        }
      },
      "owner()": {
        "details": "Returns the address of the current owner."
      },
      "paused()": {
        "details": "Returns true if the contract is paused, and false otherwise."
      },
      "renounceOwnership()": {
        "details": "Leaves the contract without owner. It will not be possible to call `onlyOwner` functions anymore. Can only be called by the current owner. NOTE: Renouncing ownership will leave the contract without an owner, thereby removing any functionality that is only available to the owner."
      },
      "transferOwnership(address)": {
        "details": "Transfers ownership of the contract to a new account (`newOwner`). Can only be called by the current owner."
      }
    },
    "version": 1
  },
  "userdoc": {
    "kind": "user",
    "methods": {
      "afterPublicSaleExecute()": {
        "notice": "the action of administrator after public sale"
      },
      "balanceOf(address)": {
        "notice": "contribution of account"
      },
      "buy(uint256)": {
        "notice": "buy EZIO and xEZIO during public sale"
      },
      "pause()": {
        "notice": "Pause the contract"
      },
      "unpause()": {
        "notice": "Unpause the contract"
      },
      "withdraw()": {
        "notice": "withdraw EZIO and xEZIO after public sale"
      }
    },
    "version": 1
  },
  "storageLayout": {
    "storage": [
      {
        "astId": 2077,
        "contract": "contracts/EzioPublicSale.sol:EzioPublicSale",
        "label": "_status",
        "offset": 0,
        "slot": "0",
        "type": "t_uint256"
      },
      {
        "astId": 1853,
        "contract": "contracts/EzioPublicSale.sol:EzioPublicSale",
        "label": "_owner",
        "offset": 0,
        "slot": "1",
        "type": "t_address"
      },
      {
        "astId": 1976,
        "contract": "contracts/EzioPublicSale.sol:EzioPublicSale",
        "label": "_paused",
        "offset": 20,
        "slot": "1",
        "type": "t_bool"
      },
      {
        "astId": 3053,
        "contract": "contracts/EzioPublicSale.sol:EzioPublicSale",
        "label": "usdc",
        "offset": 0,
        "slot": "2",
        "type": "t_contract(IERC20)2198"
      },
      {
        "astId": 3056,
        "contract": "contracts/EzioPublicSale.sol:EzioPublicSale",
        "label": "ezio",
        "offset": 0,
        "slot": "3",
        "type": "t_contract(EZIOV1)2985"
      },
      {
        "astId": 3059,
        "contract": "contracts/EzioPublicSale.sol:EzioPublicSale",
        "label": "xezio",
        "offset": 0,
        "slot": "4",
        "type": "t_contract(xEZIOV1)3828"
      },
      {
        "astId": 3061,
        "contract": "contracts/EzioPublicSale.sol:EzioPublicSale",
        "label": "wallet",
        "offset": 0,
        "slot": "5",
        "type": "t_address"
      },
      {
        "astId": 3063,
        "contract": "contracts/EzioPublicSale.sol:EzioPublicSale",
        "label": "totalRaisedAmount",
        "offset": 0,
        "slot": "6",
        "type": "t_uint256"
      },
      {
        "astId": 3068,
        "contract": "contracts/EzioPublicSale.sol:EzioPublicSale",
        "label": "contributions",
        "offset": 0,
        "slot": "7",
        "type": "t_mapping(t_address,t_struct(Contribution)3018_storage)"
      },
      {
        "astId": 3070,
        "contract": "contracts/EzioPublicSale.sol:EzioPublicSale",
        "label": "openingTime",
        "offset": 0,
        "slot": "8",
        "type": "t_uint256"
      },
      {
        "astId": 3072,
        "contract": "contracts/EzioPublicSale.sol:EzioPublicSale",
        "label": "closingTime",
        "offset": 0,
        "slot": "9",
        "type": "t_uint256"
      },
      {
        "astId": 3074,
        "contract": "contracts/EzioPublicSale.sol:EzioPublicSale",
        "label": "executeFlag",
        "offset": 0,
        "slot": "10",
        "type": "t_bool"
      }
    ],
    "types": {
      "t_address": {
        "encoding": "inplace",
        "label": "address",
        "numberOfBytes": "20"
      },
      "t_bool": {
        "encoding": "inplace",
        "label": "bool",
        "numberOfBytes": "1"
      },
      "t_contract(EZIOV1)2985": {
        "encoding": "inplace",
        "label": "contract EZIOV1",
        "numberOfBytes": "20"
      },
      "t_contract(IERC20)2198": {
        "encoding": "inplace",
        "label": "contract IERC20",
        "numberOfBytes": "20"
      },
      "t_contract(xEZIOV1)3828": {
        "encoding": "inplace",
        "label": "contract xEZIOV1",
        "numberOfBytes": "20"
      },
      "t_mapping(t_address,t_struct(Contribution)3018_storage)": {
        "encoding": "mapping",
        "key": "t_address",
        "label": "mapping(address => struct EzioPublicSale.Contribution)",
        "numberOfBytes": "32",
        "value": "t_struct(Contribution)3018_storage"
      },
      "t_struct(Contribution)3018_storage": {
        "encoding": "inplace",
        "label": "struct EzioPublicSale.Contribution",
        "members": [
          {
            "astId": 3015,
            "contract": "contracts/EzioPublicSale.sol:EzioPublicSale",
            "label": "amount",
            "offset": 0,
            "slot": "0",
            "type": "t_uint256"
          },
          {
            "astId": 3017,
            "contract": "contracts/EzioPublicSale.sol:EzioPublicSale",
            "label": "hasWithdrawn",
            "offset": 0,
            "slot": "1",
            "type": "t_bool"
          }
        ],
        "numberOfBytes": "64"
      },
      "t_uint256": {
        "encoding": "inplace",
        "label": "uint256",
        "numberOfBytes": "32"
      }
    }
  }
}